{
  "contractName": "SolnSquareVerifier",
  "abi": [
    {
      "anonymous": false,
      "inputs": [
        {
          "indexed": true,
          "internalType": "address",
          "name": "owner",
          "type": "address"
        },
        {
          "indexed": true,
          "internalType": "address",
          "name": "approved",
          "type": "address"
        },
        {
          "indexed": true,
          "internalType": "uint256",
          "name": "tokenId",
          "type": "uint256"
        }
      ],
      "name": "Approval",
      "type": "event"
    },
    {
      "anonymous": false,
      "inputs": [
        {
          "indexed": true,
          "internalType": "address",
          "name": "owner",
          "type": "address"
        },
        {
          "indexed": true,
          "internalType": "address",
          "name": "operator",
          "type": "address"
        },
        {
          "indexed": false,
          "internalType": "bool",
          "name": "approved",
          "type": "bool"
        }
      ],
      "name": "ApprovalForAll",
      "type": "event"
    },
    {
      "anonymous": false,
      "inputs": [
        {
          "indexed": false,
          "internalType": "address",
          "name": "newOnwer",
          "type": "address"
        }
      ],
      "name": "OwnerTransfered",
      "type": "event"
    },
    {
      "anonymous": false,
      "inputs": [
        {
          "indexed": false,
          "internalType": "address",
          "name": "addr",
          "type": "address"
        }
      ],
      "name": "Paused",
      "type": "event"
    },
    {
      "anonymous": false,
      "inputs": [
        {
          "indexed": true,
          "internalType": "address",
          "name": "from",
          "type": "address"
        },
        {
          "indexed": true,
          "internalType": "address",
          "name": "to",
          "type": "address"
        },
        {
          "indexed": true,
          "internalType": "uint256",
          "name": "tokenId",
          "type": "uint256"
        }
      ],
      "name": "Transfer",
      "type": "event"
    },
    {
      "anonymous": false,
      "inputs": [
        {
          "indexed": false,
          "internalType": "address",
          "name": "addr",
          "type": "address"
        }
      ],
      "name": "Unpaused",
      "type": "event"
    },
    {
      "anonymous": false,
      "inputs": [
        {
          "indexed": false,
          "internalType": "uint256",
          "name": "index",
          "type": "uint256"
        },
        {
          "indexed": false,
          "internalType": "address",
          "name": "owner",
          "type": "address"
        }
      ],
      "name": "solutionAdded",
      "type": "event"
    },
    {
      "constant": false,
      "inputs": [
        {
          "internalType": "bytes32",
          "name": "_myid",
          "type": "bytes32"
        },
        {
          "internalType": "string",
          "name": "_result",
          "type": "string"
        }
      ],
      "name": "__callback",
      "outputs": [],
      "payable": false,
      "stateMutability": "nonpayable",
      "type": "function"
    },
    {
      "constant": false,
      "inputs": [
        {
          "internalType": "bytes32",
          "name": "_myid",
          "type": "bytes32"
        },
        {
          "internalType": "string",
          "name": "_result",
          "type": "string"
        },
        {
          "internalType": "bytes",
          "name": "_proof",
          "type": "bytes"
        }
      ],
      "name": "__callback",
      "outputs": [],
      "payable": false,
      "stateMutability": "nonpayable",
      "type": "function"
    },
    {
      "constant": false,
      "inputs": [
        {
          "internalType": "address",
          "name": "to",
          "type": "address"
        },
        {
          "internalType": "uint256",
          "name": "tokenId",
          "type": "uint256"
        }
      ],
      "name": "approve",
      "outputs": [],
      "payable": false,
      "stateMutability": "nonpayable",
      "type": "function"
    },
    {
      "constant": true,
      "inputs": [
        {
          "internalType": "address",
          "name": "owner",
          "type": "address"
        }
      ],
      "name": "balanceOf",
      "outputs": [
        {
          "internalType": "uint256",
          "name": "",
          "type": "uint256"
        }
      ],
      "payable": false,
      "stateMutability": "view",
      "type": "function"
    },
    {
      "constant": true,
      "inputs": [],
      "name": "baseTokenURI",
      "outputs": [
        {
          "internalType": "string",
          "name": "",
          "type": "string"
        }
      ],
      "payable": false,
      "stateMutability": "view",
      "type": "function"
    },
    {
      "constant": true,
      "inputs": [
        {
          "internalType": "uint256",
          "name": "tokenId",
          "type": "uint256"
        }
      ],
      "name": "getApproved",
      "outputs": [
        {
          "internalType": "address",
          "name": "",
          "type": "address"
        }
      ],
      "payable": false,
      "stateMutability": "view",
      "type": "function"
    },
    {
      "constant": true,
      "inputs": [],
      "name": "getOwner",
      "outputs": [
        {
          "internalType": "address",
          "name": "",
          "type": "address"
        }
      ],
      "payable": false,
      "stateMutability": "view",
      "type": "function"
    },
    {
      "constant": true,
      "inputs": [
        {
          "internalType": "address",
          "name": "owner",
          "type": "address"
        },
        {
          "internalType": "address",
          "name": "operator",
          "type": "address"
        }
      ],
      "name": "isApprovedForAll",
      "outputs": [
        {
          "internalType": "bool",
          "name": "",
          "type": "bool"
        }
      ],
      "payable": false,
      "stateMutability": "view",
      "type": "function"
    },
    {
      "constant": false,
      "inputs": [
        {
          "internalType": "address",
          "name": "to",
          "type": "address"
        },
        {
          "internalType": "uint256",
          "name": "tokenId",
          "type": "uint256"
        }
      ],
      "name": "mint",
      "outputs": [
        {
          "internalType": "bool",
          "name": "",
          "type": "bool"
        }
      ],
      "payable": false,
      "stateMutability": "nonpayable",
      "type": "function"
    },
    {
      "constant": true,
      "inputs": [],
      "name": "name",
      "outputs": [
        {
          "internalType": "string",
          "name": "",
          "type": "string"
        }
      ],
      "payable": false,
      "stateMutability": "view",
      "type": "function"
    },
    {
      "constant": true,
      "inputs": [
        {
          "internalType": "uint256",
          "name": "tokenId",
          "type": "uint256"
        }
      ],
      "name": "ownerOf",
      "outputs": [
        {
          "internalType": "address",
          "name": "",
          "type": "address"
        }
      ],
      "payable": false,
      "stateMutability": "view",
      "type": "function"
    },
    {
      "constant": false,
      "inputs": [
        {
          "internalType": "address",
          "name": "from",
          "type": "address"
        },
        {
          "internalType": "address",
          "name": "to",
          "type": "address"
        },
        {
          "internalType": "uint256",
          "name": "tokenId",
          "type": "uint256"
        }
      ],
      "name": "safeTransferFrom",
      "outputs": [],
      "payable": false,
      "stateMutability": "nonpayable",
      "type": "function"
    },
    {
      "constant": false,
      "inputs": [
        {
          "internalType": "address",
          "name": "from",
          "type": "address"
        },
        {
          "internalType": "address",
          "name": "to",
          "type": "address"
        },
        {
          "internalType": "uint256",
          "name": "tokenId",
          "type": "uint256"
        },
        {
          "internalType": "bytes",
          "name": "_data",
          "type": "bytes"
        }
      ],
      "name": "safeTransferFrom",
      "outputs": [],
      "payable": false,
      "stateMutability": "nonpayable",
      "type": "function"
    },
    {
      "constant": false,
      "inputs": [
        {
          "internalType": "address",
          "name": "to",
          "type": "address"
        },
        {
          "internalType": "bool",
          "name": "approved",
          "type": "bool"
        }
      ],
      "name": "setApprovalForAll",
      "outputs": [],
      "payable": false,
      "stateMutability": "nonpayable",
      "type": "function"
    },
    {
      "constant": false,
      "inputs": [
        {
          "internalType": "bool",
          "name": "ispaused",
          "type": "bool"
        }
      ],
      "name": "setPaused",
      "outputs": [],
      "payable": false,
      "stateMutability": "nonpayable",
      "type": "function"
    },
    {
      "constant": true,
      "inputs": [
        {
          "internalType": "bytes4",
          "name": "interfaceId",
          "type": "bytes4"
        }
      ],
      "name": "supportsInterface",
      "outputs": [
        {
          "internalType": "bool",
          "name": "",
          "type": "bool"
        }
      ],
      "payable": false,
      "stateMutability": "view",
      "type": "function"
    },
    {
      "constant": true,
      "inputs": [],
      "name": "symbol",
      "outputs": [
        {
          "internalType": "string",
          "name": "",
          "type": "string"
        }
      ],
      "payable": false,
      "stateMutability": "view",
      "type": "function"
    },
    {
      "constant": true,
      "inputs": [
        {
          "internalType": "uint256",
          "name": "index",
          "type": "uint256"
        }
      ],
      "name": "tokenByIndex",
      "outputs": [
        {
          "internalType": "uint256",
          "name": "",
          "type": "uint256"
        }
      ],
      "payable": false,
      "stateMutability": "view",
      "type": "function"
    },
    {
      "constant": true,
      "inputs": [
        {
          "internalType": "address",
          "name": "owner",
          "type": "address"
        },
        {
          "internalType": "uint256",
          "name": "index",
          "type": "uint256"
        }
      ],
      "name": "tokenOfOwnerByIndex",
      "outputs": [
        {
          "internalType": "uint256",
          "name": "",
          "type": "uint256"
        }
      ],
      "payable": false,
      "stateMutability": "view",
      "type": "function"
    },
    {
      "constant": true,
      "inputs": [
        {
          "internalType": "uint256",
          "name": "tokenId",
          "type": "uint256"
        }
      ],
      "name": "tokenURI",
      "outputs": [
        {
          "internalType": "string",
          "name": "",
          "type": "string"
        }
      ],
      "payable": false,
      "stateMutability": "view",
      "type": "function"
    },
    {
      "constant": true,
      "inputs": [],
      "name": "totalSupply",
      "outputs": [
        {
          "internalType": "uint256",
          "name": "",
          "type": "uint256"
        }
      ],
      "payable": false,
      "stateMutability": "view",
      "type": "function"
    },
    {
      "constant": false,
      "inputs": [
        {
          "internalType": "address",
          "name": "from",
          "type": "address"
        },
        {
          "internalType": "address",
          "name": "to",
          "type": "address"
        },
        {
          "internalType": "uint256",
          "name": "tokenId",
          "type": "uint256"
        }
      ],
      "name": "transferFrom",
      "outputs": [],
      "payable": false,
      "stateMutability": "nonpayable",
      "type": "function"
    },
    {
      "constant": false,
      "inputs": [
        {
          "internalType": "address",
          "name": "newOwner",
          "type": "address"
        }
      ],
      "name": "transferOwnership",
      "outputs": [],
      "payable": false,
      "stateMutability": "nonpayable",
      "type": "function"
    },
    {
      "constant": true,
      "inputs": [
        {
          "components": [
            {
              "components": [
                {
                  "internalType": "uint256",
                  "name": "X",
                  "type": "uint256"
                },
                {
                  "internalType": "uint256",
                  "name": "Y",
                  "type": "uint256"
                }
              ],
              "internalType": "struct Pairing.G1Point",
              "name": "a",
              "type": "tuple"
            },
            {
              "components": [
                {
                  "internalType": "uint256[2]",
                  "name": "X",
                  "type": "uint256[2]"
                },
                {
                  "internalType": "uint256[2]",
                  "name": "Y",
                  "type": "uint256[2]"
                }
              ],
              "internalType": "struct Pairing.G2Point",
              "name": "b",
              "type": "tuple"
            },
            {
              "components": [
                {
                  "internalType": "uint256",
                  "name": "X",
                  "type": "uint256"
                },
                {
                  "internalType": "uint256",
                  "name": "Y",
                  "type": "uint256"
                }
              ],
              "internalType": "struct Pairing.G1Point",
              "name": "c",
              "type": "tuple"
            }
          ],
          "internalType": "struct SquareVerifier.Proof",
          "name": "proof",
          "type": "tuple"
        },
        {
          "internalType": "uint256[2]",
          "name": "input",
          "type": "uint256[2]"
        }
      ],
      "name": "verifyTx",
      "outputs": [
        {
          "internalType": "bool",
          "name": "r",
          "type": "bool"
        }
      ],
      "payable": false,
      "stateMutability": "view",
      "type": "function"
    },
    {
      "constant": false,
      "inputs": [],
      "name": "addSolution",
      "outputs": [],
      "payable": false,
      "stateMutability": "nonpayable",
      "type": "function"
    },
    {
      "constant": false,
      "inputs": [
        {
          "internalType": "uint256",
          "name": "index",
          "type": "uint256"
        },
        {
          "components": [
            {
              "components": [
                {
                  "internalType": "uint256",
                  "name": "X",
                  "type": "uint256"
                },
                {
                  "internalType": "uint256",
                  "name": "Y",
                  "type": "uint256"
                }
              ],
              "internalType": "struct Pairing.G1Point",
              "name": "a",
              "type": "tuple"
            },
            {
              "components": [
                {
                  "internalType": "uint256[2]",
                  "name": "X",
                  "type": "uint256[2]"
                },
                {
                  "internalType": "uint256[2]",
                  "name": "Y",
                  "type": "uint256[2]"
                }
              ],
              "internalType": "struct Pairing.G2Point",
              "name": "b",
              "type": "tuple"
            },
            {
              "components": [
                {
                  "internalType": "uint256",
                  "name": "X",
                  "type": "uint256"
                },
                {
                  "internalType": "uint256",
                  "name": "Y",
                  "type": "uint256"
                }
              ],
              "internalType": "struct Pairing.G1Point",
              "name": "c",
              "type": "tuple"
            }
          ],
          "internalType": "struct SquareVerifier.Proof",
          "name": "proof",
          "type": "tuple"
        },
        {
          "internalType": "uint256[2]",
          "name": "input",
          "type": "uint256[2]"
        },
        {
          "internalType": "address",
          "name": "to",
          "type": "address"
        },
        {
          "internalType": "uint256",
          "name": "tokenId",
          "type": "uint256"
        }
      ],
      "name": "mintNewNFT",
      "outputs": [],
      "payable": false,
      "stateMutability": "nonpayable",
      "type": "function"
    }
  ],
  "bytecode": "0x60806040526040518060400160405280600881526020017f63617073746f6e650000000000000000000000000000000000000000000000008152506040518060400160405280600381526020017f43415000000000000000000000000000000000000000000000000000000000008152506040518060600160405280603f81526020016200465d603f9139336000806101000a81548173ffffffffffffffffffffffffffffffffffffffff021916908373ffffffffffffffffffffffffffffffffffffffff1602179055507f32f9b4ad842654dbc1aefcf3959047b3100382a41e757e901bf5f504d503a7096000809054906101000a900473ffffffffffffffffffffffffffffffffffffffff166040516200011c919062000352565b60405180910390a160008060146101000a81548160ff021916908315150217905550620001566301ffc9a760e01b620001f260201b60201c565b6200016e6380ac58cd60e01b620001f260201b60201c565b6200018663780e9d6360e01b620001f260201b60201c565b82600f90805190602001906200019e92919062000292565b508160109080519060200190620001b792919062000292565b508060119080519060200190620001d092919062000292565b50620001e9635b5e139f60e01b620001f260201b60201c565b505050620003a3565b63ffffffff60e01b817bffffffffffffffffffffffffffffffffffffffffffffffffffffffff191614156200022657600080fd5b6001806000837bffffffffffffffffffffffffffffffffffffffffffffffffffffffff19167bffffffffffffffffffffffffffffffffffffffffffffffffffffffff1916815260200190815260200160002060006101000a81548160ff02191690831515021790555050565b828054600181600116156101000203166002900490600052602060002090601f016020900481019282601f10620002d557805160ff191683800117855562000306565b8280016001018555821562000306579182015b8281111562000305578251825591602001919060010190620002e8565b5b50905062000315919062000319565b5090565b6200033e91905b808211156200033a57600081600090555060010162000320565b5090565b90565b6200034c816200036f565b82525050565b600060208201905062000369600083018462000341565b92915050565b60006200037c8262000383565b9050919050565b600073ffffffffffffffffffffffffffffffffffffffff82169050919050565b6142aa80620003b36000396000f3fe608060405234801561001057600080fd5b506004361061018e5760003560e01c806342842e0e116100de57806395d89b4111610097578063c87b56dd11610071578063c87b56dd14610491578063d547cfb7146104c1578063e985e9c5146104df578063f2fde38b1461050f5761018e565b806395d89b411461043b578063a22cb46514610459578063b88d4fde146104755761018e565b806342842e0e1461034157806343cd76fc1461035d5780634f6ccce71461038d5780636352211e146103bd57806370a08231146103ed578063893d20e81461041d5761018e565b806318160ddd1161014b5780632f745c59116101255780632f745c59146102bb57806338bbfa50146102eb5780633adf31e91461030757806340c10f19146103115761018e565b806318160ddd1461026557806323b872dd1461028357806327dc297e1461029f5761018e565b806301ffc9a71461019357806305152544146101c357806306fdde03146101df578063081812fc146101fd578063095ea7b31461022d57806316c38b3c14610249575b600080fd5b6101ad60048036036101a891908101906137a0565b61052b565b6040516101ba9190613de8565b60405180910390f35b6101dd60048036036101d89190810190613883565b610593565b005b6101e761079c565b6040516101f49190613e03565b60405180910390f35b6102176004803603610212919081019061385a565b61083e565b6040516102249190613d66565b60405180910390f35b61024760048036036102429190810190613668565b61087b565b005b610263600480360361025e91908101906136a4565b610a37565b005b61026d610b5d565b60405161027a9190613f70565b60405180910390f35b61029d60048036036102989190810190613562565b610b6a565b005b6102b960048036036102b491908101906136cd565b610b8d565b005b6102d560048036036102d09190810190613668565b610bd0565b6040516102e29190613f70565b60405180910390f35b61030560048036036103009190810190613721565b610c43565b005b61030f610c48565b005b61032b60048036036103269190810190613668565b610d3a565b6040516103389190613de8565b60405180910390f35b61035b60048036036103569190810190613562565b610de8565b005b6103776004803603610372919081019061381c565b610e08565b6040516103849190613de8565b60405180910390f35b6103a760048036036103a2919081019061385a565b610ead565b6040516103b49190613f70565b60405180910390f35b6103d760048036036103d2919081019061385a565b610ee1565b6040516103e49190613d66565b60405180910390f35b610407600480360361040291908101906134fd565b610f1e565b6040516104149190613f70565b60405180910390f35b610425610f6e565b6040516104329190613d66565b60405180910390f35b610443610f97565b6040516104509190613e03565b60405180910390f35b610473600480360361046e919081019061362c565b611039565b005b61048f600480360361048a91908101906135b1565b61116f565b005b6104ab60048036036104a6919081019061385a565b611195565b6040516104b89190613e03565b60405180910390f35b6104c961125c565b6040516104d69190613e03565b60405180910390f35b6104f960048036036104f49190810190613526565b6112fe565b6040516105069190613de8565b60405180910390f35b610529600480360361052491908101906134fd565b611392565b005b600060016000837bffffffffffffffffffffffffffffffffffffffffffffffffffffffff19167bffffffffffffffffffffffffffffffffffffffffffffffffffffffff1916815260200190815260200160002060009054906101000a900460ff169050919050565b600084846040516020016105a8929190613f45565b6040516020818303038152906040528051906020012090503373ffffffffffffffffffffffffffffffffffffffff16601387815481106105e457fe5b906000526020600020906002020160010160009054906101000a900473ffffffffffffffffffffffffffffffffffffffff1673ffffffffffffffffffffffffffffffffffffffff161461066c576040517f08c379a000000000000000000000000000000000000000000000000000000000815260040161066390613ee5565b60405180910390fd5b6014600082815260200190815260200160002060009054906101000a900460ff16156106cd576040517f08c379a00000000000000000000000000000000000000000000000000000000081526004016106c490613f25565b60405180910390fd5b61071e858036036106e191908101906137f2565b856002806020026040519081016040528092919082600260200280828437600081840152601f19601f820116905080830192505050505050610e08565b61075d576040517f08c379a000000000000000000000000000000000000000000000000000000000815260040161075490613f05565b60405180910390fd5b60016014600083815260200190815260200160002060006101000a81548160ff0219169083151502179055506107938383610d3a565b50505050505050565b6060600f8054600181600116156101000203166002900480601f0160208091040260200160405190810160405280929190818152602001828054600181600116156101000203166002900480156108345780601f1061080957610100808354040283529160200191610834565b820191906000526020600020905b81548152906001019060200180831161081757829003601f168201915b5050505050905090565b60006003600083815260200190815260200160002060009054906101000a900473ffffffffffffffffffffffffffffffffffffffff169050919050565b61088481610ee1565b73ffffffffffffffffffffffffffffffffffffffff168273ffffffffffffffffffffffffffffffffffffffff1614156108f2576040517f08c379a00000000000000000000000000000000000000000000000000000000081526004016108e990613e85565b60405180910390fd5b6108fa610f6e565b73ffffffffffffffffffffffffffffffffffffffff163373ffffffffffffffffffffffffffffffffffffffff161480610940575061093f610939610f6e565b836112fe565b5b61097f576040517f08c379a000000000000000000000000000000000000000000000000000000000815260040161097690613e45565b60405180910390fd5b816003600083815260200190815260200160002060006101000a81548173ffffffffffffffffffffffffffffffffffffffff021916908373ffffffffffffffffffffffffffffffffffffffff160217905550808273ffffffffffffffffffffffffffffffffffffffff166109f1610f6e565b73ffffffffffffffffffffffffffffffffffffffff167f8c5be1e5ebec7d5bd14f71427d1e84f3dd0314c0f7b2291e5b200ac8c7c3b92560405160405180910390a45050565b6000809054906101000a900473ffffffffffffffffffffffffffffffffffffffff1673ffffffffffffffffffffffffffffffffffffffff163373ffffffffffffffffffffffffffffffffffffffff1614610ac6576040517f08c379a0000000000000000000000000000000000000000000000000000000008152600401610abd90613ea5565b60405180910390fd5b80600060146101000a81548160ff0219169083151502179055508015610b22577f62e78cea01bee320cd4e420270b5ea74000d11b0c9f74754ebdbfc544b05a25833604051610b159190613d81565b60405180910390a1610b5a565b7f5db9ee0a495bf2e6ff9c91a7834c1ba4fdd244a5e8aa4e537bd38aeae4b073aa33604051610b519190613d81565b60405180910390a15b50565b6000600880549050905090565b610b743382611509565b610b7d57600080fd5b610b8883838361159e565b505050565b610bcc828260006040519080825280601f01601f191660200182016040528015610bc65781602001600182028038833980820191505090505b50610c43565b5050565b6000610bdb83610f1e565b8210610be657600080fd5b600660008473ffffffffffffffffffffffffffffffffffffffff1673ffffffffffffffffffffffffffffffffffffffff1681526020019081526020016000208281548110610c3057fe5b9060005260206000200154905092915050565b505050565b60006013805490509050601360405180604001604052808381526020013373ffffffffffffffffffffffffffffffffffffffff16815250908060018154018082558091505090600182039060005260206000209060020201600090919290919091506000820151816000015560208201518160010160006101000a81548173ffffffffffffffffffffffffffffffffffffffff021916908373ffffffffffffffffffffffffffffffffffffffff1602179055505050507f529aebee0fa53cdfb493ac455bd2a7b5924a502f5e34b85b84ebda0e84e62cb28133604051610d2f929190613f8b565b60405180910390a150565b60008060009054906101000a900473ffffffffffffffffffffffffffffffffffffffff1673ffffffffffffffffffffffffffffffffffffffff163373ffffffffffffffffffffffffffffffffffffffff1614610dcb576040517f08c379a0000000000000000000000000000000000000000000000000000000008152600401610dc290613ea5565b60405180910390fd5b610dd583836115c2565b610dde826115e3565b6001905092915050565b610e038383836040518060200160405280600081525061116f565b505050565b600060606002604051908082528060200260200182016040528015610e3c5781602001602082028038833980820191505090505b50905060008090505b6002811015610e8457838160028110610e5a57fe5b6020020151828281518110610e6b57fe5b6020026020010181815250508080600101915050610e45565b506000610e9182866116d1565b1415610ea1576001915050610ea7565b60009150505b92915050565b6000610eb7610b5d565b8210610ec257600080fd5b60088281548110610ecf57fe5b90600052602060002001549050919050565b60006002600083815260200190815260200160002060009054906101000a900473ffffffffffffffffffffffffffffffffffffffff169050919050565b6000610f67600460008473ffffffffffffffffffffffffffffffffffffffff1673ffffffffffffffffffffffffffffffffffffffff168152602001908152602001600020611843565b9050919050565b60008060009054906101000a900473ffffffffffffffffffffffffffffffffffffffff16905090565b606060108054600181600116156101000203166002900480601f01602080910402602001604051908101604052809291908181526020018280546001816001161561010002031660029004801561102f5780601f106110045761010080835404028352916020019161102f565b820191906000526020600020905b81548152906001019060200180831161101257829003601f168201915b5050505050905090565b3373ffffffffffffffffffffffffffffffffffffffff168273ffffffffffffffffffffffffffffffffffffffff16141561107257600080fd5b80600560003373ffffffffffffffffffffffffffffffffffffffff1673ffffffffffffffffffffffffffffffffffffffff16815260200190815260200160002060008473ffffffffffffffffffffffffffffffffffffffff1673ffffffffffffffffffffffffffffffffffffffff16815260200190815260200160002060006101000a81548160ff0219169083151502179055508173ffffffffffffffffffffffffffffffffffffffff163373ffffffffffffffffffffffffffffffffffffffff167f17307eab39ab6107e8899845ad3d59bd9653f200f220920489ca2b5937696c31836040516111639190613de8565b60405180910390a35050565b61117a848484610b6a565b61118684848484611851565b61118f57600080fd5b50505050565b60606111a082611968565b6111a957600080fd5b601260008381526020019081526020016000208054600181600116156101000203166002900480601f0160208091040260200160405190810160405280929190818152602001828054600181600116156101000203166002900480156112505780601f1061122557610100808354040283529160200191611250565b820191906000526020600020905b81548152906001019060200180831161123357829003601f168201915b50505050509050919050565b606060118054600181600116156101000203166002900480601f0160208091040260200160405190810160405280929190818152602001828054600181600116156101000203166002900480156112f45780601f106112c9576101008083540402835291602001916112f4565b820191906000526020600020905b8154815290600101906020018083116112d757829003601f168201915b5050505050905090565b6000600560008473ffffffffffffffffffffffffffffffffffffffff1673ffffffffffffffffffffffffffffffffffffffff16815260200190815260200160002060008373ffffffffffffffffffffffffffffffffffffffff1673ffffffffffffffffffffffffffffffffffffffff16815260200190815260200160002060009054906101000a900460ff16905092915050565b6000809054906101000a900473ffffffffffffffffffffffffffffffffffffffff1673ffffffffffffffffffffffffffffffffffffffff163373ffffffffffffffffffffffffffffffffffffffff1614611421576040517f08c379a000000000000000000000000000000000000000000000000000000000815260040161141890613ea5565b60405180910390fd5b3273ffffffffffffffffffffffffffffffffffffffff163373ffffffffffffffffffffffffffffffffffffffff161461148f576040517f08c379a000000000000000000000000000000000000000000000000000000000815260040161148690613e65565b60405180910390fd5b806000806101000a81548173ffffffffffffffffffffffffffffffffffffffff021916908373ffffffffffffffffffffffffffffffffffffffff1602179055507f32f9b4ad842654dbc1aefcf3959047b3100382a41e757e901bf5f504d503a709816040516114fe9190613d66565b60405180910390a150565b60008061151583610ee1565b90508073ffffffffffffffffffffffffffffffffffffffff168473ffffffffffffffffffffffffffffffffffffffff16148061158457508373ffffffffffffffffffffffffffffffffffffffff1661156c8461083e565b73ffffffffffffffffffffffffffffffffffffffff16145b80611595575061159481856112fe565b5b91505092915050565b6115a98383836119da565b6115b38382611c00565b6115bd8282611d9e565b505050565b6115cc8282611e65565b6115d68282611d9e565b6115df81612038565b5050565b6115ec81611968565b6115f557600080fd5b606061160082612084565b90506116a660118054600181600116156101000203166002900480601f01602080910402602001604051908101604052809291908181526020018280546001816001161561010002031660029004801561169b5780601f106116705761010080835404028352916020019161169b565b820191906000526020600020905b81548152906001019060200180831161167e57829003601f168201915b5050505050826121b1565b6012600084815260200190815260200160002090805190602001906116cc929190612fc2565b505050565b6000807f30644e72e131a029b85045b68181585d2833e84879b9709143e1f593f000000190506116ff613042565b6117076121f5565b905080608001515160018651011461171e57600080fd5b611726613089565b6040518060400160405280600081526020016000815250905060008090505b86518110156117bc578387828151811061175b57fe5b60200260200101511061176d57600080fd5b6117ad826117a88560800151600185018151811061178757fe5b60200260200101518a858151811061179b57fe5b6020026020010151612643565b6126d5565b91508080600101915050611745565b506117df8183608001516000815181106117d257fe5b60200260200101516126d5565b9050611825856000015186602001516117f784612786565b85604001516118098a60400151612786565b876060015161181b8960000151612786565b8960200151612820565b611835576001935050505061183d565b600093505050505b92915050565b600081600001549050919050565b60006118728473ffffffffffffffffffffffffffffffffffffffff16612984565b61187f5760019050611960565b60008473ffffffffffffffffffffffffffffffffffffffff1663150b7a02338887876040518563ffffffff1660e01b81526004016118c09493929190613d9c565b602060405180830381600087803b1580156118da57600080fd5b505af11580156118ee573d6000803e3d6000fd5b505050506040513d601f19601f8201168201806040525061191291908101906137c9565b905063150b7a0260e01b7bffffffffffffffffffffffffffffffffffffffffffffffffffffffff1916817bffffffffffffffffffffffffffffffffffffffffffffffffffffffff1916149150505b949350505050565b6000806002600084815260200190815260200160002060009054906101000a900473ffffffffffffffffffffffffffffffffffffffff169050600073ffffffffffffffffffffffffffffffffffffffff168173ffffffffffffffffffffffffffffffffffffffff161415915050919050565b6119e381610ee1565b73ffffffffffffffffffffffffffffffffffffffff168373ffffffffffffffffffffffffffffffffffffffff1614611a50576040517f08c379a0000000000000000000000000000000000000000000000000000000008152600401611a4790613e25565b60405180910390fd5b600073ffffffffffffffffffffffffffffffffffffffff168273ffffffffffffffffffffffffffffffffffffffff161415611a8a57600080fd5b6003600082815260200190815260200160002060006101000a81549073ffffffffffffffffffffffffffffffffffffffff0219169055816002600083815260200190815260200160002060006101000a81548173ffffffffffffffffffffffffffffffffffffffff021916908373ffffffffffffffffffffffffffffffffffffffff160217905550611b59600460008473ffffffffffffffffffffffffffffffffffffffff1673ffffffffffffffffffffffffffffffffffffffff1681526020019081526020016000206129cf565b611ba0600460008573ffffffffffffffffffffffffffffffffffffffff1673ffffffffffffffffffffffffffffffffffffffff1681526020019081526020016000206129e5565b808273ffffffffffffffffffffffffffffffffffffffff168473ffffffffffffffffffffffffffffffffffffffff167fddf252ad1be2c89b69c2b068fc378daa952ba7f163c4a11628f55a4df523b3ef60405160405180910390a4505050565b6000611c586001600660008673ffffffffffffffffffffffffffffffffffffffff1673ffffffffffffffffffffffffffffffffffffffff16815260200190815260200160002080549050612a0890919063ffffffff16565b9050600060076000848152602001908152602001600020549050818114611d45576000600660008673ffffffffffffffffffffffffffffffffffffffff1673ffffffffffffffffffffffffffffffffffffffff1681526020019081526020016000208381548110611cc557fe5b9060005260206000200154905080600660008773ffffffffffffffffffffffffffffffffffffffff1673ffffffffffffffffffffffffffffffffffffffff1681526020019081526020016000208381548110611d1d57fe5b9060005260206000200181905550816007600083815260200190815260200160002081905550505b600660008573ffffffffffffffffffffffffffffffffffffffff1673ffffffffffffffffffffffffffffffffffffffff168152602001908152602001600020805480919060019003611d9791906130a3565b5050505050565b600660008373ffffffffffffffffffffffffffffffffffffffff1673ffffffffffffffffffffffffffffffffffffffff168152602001908152602001600020805490506007600083815260200190815260200160002081905550600660008373ffffffffffffffffffffffffffffffffffffffff1673ffffffffffffffffffffffffffffffffffffffff1681526020019081526020016000208190806001815401808255809150509060018203906000526020600020016000909192909190915055505050565b8173ffffffffffffffffffffffffffffffffffffffff166002600083815260200190815260200160002060009054906101000a900473ffffffffffffffffffffffffffffffffffffffff1673ffffffffffffffffffffffffffffffffffffffff1614158015611f015750600073ffffffffffffffffffffffffffffffffffffffff168273ffffffffffffffffffffffffffffffffffffffff1614155b611f40576040517f08c379a0000000000000000000000000000000000000000000000000000000008152600401611f3790613ec5565b60405180910390fd5b816002600083815260200190815260200160002060006101000a81548173ffffffffffffffffffffffffffffffffffffffff021916908373ffffffffffffffffffffffffffffffffffffffff160217905550611fd9600460008473ffffffffffffffffffffffffffffffffffffffff1673ffffffffffffffffffffffffffffffffffffffff1681526020019081526020016000206129cf565b808273ffffffffffffffffffffffffffffffffffffffff163373ffffffffffffffffffffffffffffffffffffffff167fddf252ad1be2c89b69c2b068fc378daa952ba7f163c4a11628f55a4df523b3ef60405160405180910390a45050565b6008805490506009600083815260200190815260200160002081905550600881908060018154018082558091505090600182039060005260206000200160009091929091909150555050565b606060008214156120cc576040518060400160405280600181526020017f300000000000000000000000000000000000000000000000000000000000000081525090506121ac565b600082905060005b600082146120f6578080600101915050600a82816120ee57fe5b0491506120d4565b6060816040519080825280601f01601f19166020018201604052801561212b5781602001600182028038833980820191505090505b50905060006001830390505b600086146121a457600a868161214957fe5b0660300160f81b8282806001900393508151811061216357fe5b60200101907effffffffffffffffffffffffffffffffffffffffffffffffffffffffffffff1916908160001a905350600a868161219c57fe5b049550612137565b819450505050505b919050565b60606121ed8383604051806020016040528060008152506040518060200160405280600081525060405180602001604052806000815250612a52565b905092915050565b6121fd613042565b60405180604001604052807f21530f795f9d7b11f67d8527f77d76326a72d55dbd1d21c088ff7c8baed4cef481526020017f274dd944268822a53146aacbad45d7c3fdf65779a3f60b25330505a3a0ee3f6a8152508160000181905250604051806040016040528060405180604001604052807f02bfea4e7884ca572b581ced2b6d6cea7dda530b1a03a3fd319528fa439c779681526020017f2ab551261bcd7ead6d66faf4cf4af0595ab0bcf7f99aee957728957e312b4687815250815260200160405180604001604052807f0abb37b15f67009f4c11976a989ee5ae58d5812fa5d856af91d179c69d18eec781526020017f2c166ecaf2c139938c2c9243693f135ae89d8257cfa3482546c5e4107da8d5568152508152508160200181905250604051806040016040528060405180604001604052807f1ef91ba25dd4c3ed41906f19d1f50571d9247ef8727fc630943e2f0547960a1581526020017f2caf068b25548fdb73f3803b5203fb246f297d4c2ab24d95f4f176ad9c0c8b2c815250815260200160405180604001604052807f2fa8aff5017d236e6a8a6cd3efa3ac1a1288c047a03078aa5220932f00a537d481526020017f235f2ace6bb12ae66a1f449b805bb6902cfff06dfe56acda33fb7f022d92a5688152508152508160400181905250604051806040016040528060405180604001604052807f20693624624ee75c3fd118800e498a6ea289fb04f2c78be3c24ff5fac24cf6fa81526020017f158b2adccfad27af256e602295bb6647c12a28b216393e38b0e7b9b485d55807815250815260200160405180604001604052807f230d34c59db61d692475bd61629f789b19dee431d131c2fb4998c27f44d4cd5e81526020017f235805737bba90472ac6051591891a4bff7c0536609f8a1847a0cd979bc7e9a4815250815250816060018190525060036040519080825280602002602001820160405280156124e457816020015b6124d16130cf565b8152602001906001900390816124c95790505b50816080018190525060405180604001604052807f187a80baee0912286e78371eac69aaaf10816e075611f48d34984608f5c6f9f581526020017f14aa361290ef0313efbe32a6d64032923bf34d79dfbdc1fbbe403116b2fdb91b815250816080015160008151811061255357fe5b602002602001018190525060405180604001604052807f11cabf1220886a165a563c2f0c43d45a74900241502d6887b91dbe6e8432a54481526020017f0bc1841cd7c9f82351804f520e4ee50396d5a4d3a26aa7c6a5e137aff09621d481525081608001516001815181106125c457fe5b602002602001018190525060405180604001604052807f0f51f75ed81101c766421b1b78dfff6ef333a2297f832197d5d5535b57f0d4f281526020017f2ece8f863ae207b5f48671ddc789a24ff025bfb5fab12bed4493cd15b0efece0815250816080015160028151811061263557fe5b602002602001018190525090565b61264b613089565b6126536130e9565b83600001518160006003811061266557fe5b60200201818152505083602001518160016003811061268057fe5b602002018181525050828160026003811061269757fe5b602002018181525050600060608360808460076107d05a03fa905080600081146126c0576126c2565bfe5b50806126cd57600080fd5b505092915050565b6126dd613089565b6126e561310b565b8360000151816000600481106126f757fe5b60200201818152505083602001518160016004811061271257fe5b60200201818152505082600001518160026004811061272d57fe5b60200201818152505082602001518160036004811061274857fe5b602002018181525050600060608360c08460066107d05a03fa9050806000811461277157612773565bfe5b508061277e57600080fd5b505092915050565b61278e613089565b60007f30644e72e131a029b85045b68181585d97816a916871ca8d3c208c16d87cfd479050600083600001511480156127cb575060008360200151145b156127ef57604051806040016040528060008152602001600081525091505061281b565b6040518060400160405280846000015181526020018285602001518161281157fe5b0683038152509150505b919050565b60006060600460405190808252806020026020018201604052801561285f57816020015b61284c6130cf565b8152602001906001900390816128445790505b5090506060600460405190808252806020026020018201604052801561289f57816020015b61288c61312d565b8152602001906001900390816128845790505b5090508a826000815181106128b057fe5b602002602001018190525088826001815181106128c957fe5b602002602001018190525086826002815181106128e257fe5b602002602001018190525084826003815181106128fb57fe5b6020026020010181905250898160008151811061291457fe5b6020026020010181905250878160018151811061292d57fe5b6020026020010181905250858160028151811061294657fe5b6020026020010181905250838160038151811061295f57fe5b60200260200101819052506129748282612d14565b9250505098975050505050505050565b60008060007fc5d2460186f7233c927e7db2dcc703c0e500b653ca82273b7bfad8045d85a47060001b9050833f91508082141580156129c657506000801b8214155b92505050919050565b6001816000016000828254019250508190555050565b6129fd60018260000154612a0890919063ffffffff16565b816000018190555050565b6000612a4a83836040518060400160405280601e81526020017f536166654d6174683a207375627472616374696f6e206f766572666c6f770000815250612f67565b905092915050565b6060808690506060869050606086905060608690506060869050606081518351855187518951010101016040519080825280601f01601f191660200182016040528015612aae5781602001600182028038833980820191505090505b509050606081905060008090506000809050600090505b8851811015612b3357888181518110612ada57fe5b602001015160f81c60f81b838380600101945081518110612af757fe5b60200101907effffffffffffffffffffffffffffffffffffffffffffffffffffffffffffff1916908160001a9053508080600101915050612ac5565b600090505b8751811015612ba657878181518110612b4d57fe5b602001015160f81c60f81b838380600101945081518110612b6a57fe5b60200101907effffffffffffffffffffffffffffffffffffffffffffffffffffffffffffff1916908160001a9053508080600101915050612b38565b600090505b8651811015612c1957868181518110612bc057fe5b602001015160f81c60f81b838380600101945081518110612bdd57fe5b60200101907effffffffffffffffffffffffffffffffffffffffffffffffffffffffffffff1916908160001a9053508080600101915050612bab565b600090505b8551811015612c8c57858181518110612c3357fe5b602001015160f81c60f81b838380600101945081518110612c5057fe5b60200101907effffffffffffffffffffffffffffffffffffffffffffffffffffffffffffff1916908160001a9053508080600101915050612c1e565b600090505b8451811015612cff57848181518110612ca657fe5b602001015160f81c60f81b838380600101945081518110612cc357fe5b60200101907effffffffffffffffffffffffffffffffffffffffffffffffffffffffffffff1916908160001a9053508080600101915050612c91565b82995050505050505050505095945050505050565b60008151835114612d2457600080fd5b6000835190506000600682029050606081604051908082528060200260200182016040528015612d635781602001602082028038833980820191505090505b50905060008090505b83811015612f0957868181518110612d8057fe5b602002602001015160000151826000600684020181518110612d9e57fe5b602002602001018181525050868181518110612db657fe5b602002602001015160200151826001600684020181518110612dd457fe5b602002602001018181525050858181518110612dec57fe5b602002602001015160000151600160028110612e0457fe5b6020020151826002600684020181518110612e1b57fe5b602002602001018181525050858181518110612e3357fe5b602002602001015160000151600060028110612e4b57fe5b6020020151826003600684020181518110612e6257fe5b602002602001018181525050858181518110612e7a57fe5b602002602001015160200151600160028110612e9257fe5b6020020151826004600684020181518110612ea957fe5b602002602001018181525050858181518110612ec157fe5b602002602001015160200151600060028110612ed957fe5b6020020151826005600684020181518110612ef057fe5b6020026020010181815250508080600101915050612d6c565b50612f12613153565b6000602082602086026020860160086107d05a03fa90508060008114612f3757612f39565bfe5b5080612f4457600080fd5b600082600060018110612f5357fe5b602002015114159550505050505092915050565b6000838311158290612faf576040517f08c379a0000000000000000000000000000000000000000000000000000000008152600401612fa69190613e03565b60405180910390fd5b5060008385039050809150509392505050565b828054600181600116156101000203166002900490600052602060002090601f016020900481019282601f1061300357805160ff1916838001178555613031565b82800160010185558215613031579182015b82811115613030578251825591602001919060010190613015565b5b50905061303e9190613175565b5090565b6040518060a001604052806130556130cf565b815260200161306261312d565b815260200161306f61312d565b815260200161307c61312d565b8152602001606081525090565b604051806040016040528060008152602001600081525090565b8154818355818111156130ca578183600052602060002091820191016130c99190613175565b5b505050565b604051806040016040528060008152602001600081525090565b6040518060600160405280600390602082028038833980820191505090505090565b6040518060800160405280600490602082028038833980820191505090505090565b604051806040016040528061314061319a565b815260200161314d61319a565b81525090565b6040518060200160405280600190602082028038833980820191505090505090565b61319791905b8082111561319357600081600090555060010161317b565b5090565b90565b6040518060400160405280600290602082028038833980820191505090505090565b6000813590506131cb816141f4565b92915050565b6000819050826020600202820111156131e957600080fd5b92915050565b600082601f83011261320057600080fd5b600261321361320e82613fe1565b613fb4565b9150818385602084028201111561322957600080fd5b60005b83811015613259578161323f88826134e8565b84526020840193506020830192505060018101905061322c565b5050505092915050565b600082601f83011261327457600080fd5b600261328761328282614003565b613fb4565b9150818385602084028201111561329d57600080fd5b60005b838110156132cd57816132b388826134e8565b8452602084019350602083019250506001810190506132a0565b5050505092915050565b6000813590506132e68161420b565b92915050565b6000813590506132fb81614222565b92915050565b60008135905061331081614239565b92915050565b60008151905061332581614239565b92915050565b600082601f83011261333c57600080fd5b813561334f61334a82614025565b613fb4565b9150808252602083016020830185838301111561336b57600080fd5b6133768382846141a1565b50505092915050565b600082601f83011261339057600080fd5b81356133a361339e82614051565b613fb4565b915080825260208301602083018583830111156133bf57600080fd5b6133ca8382846141a1565b50505092915050565b6000604082840312156133e557600080fd5b6133ef6040613fb4565b905060006133ff848285016134e8565b6000830152506020613413848285016134e8565b60208301525092915050565b60006080828403121561343157600080fd5b61343b6040613fb4565b9050600061344b848285016131ef565b600083015250604061345f848285016131ef565b60208301525092915050565b6000610100828403121561347e57600080fd5b81905092915050565b6000610100828403121561349a57600080fd5b6134a46060613fb4565b905060006134b4848285016133d3565b60008301525060406134c88482850161341f565b60208301525060c06134dc848285016133d3565b60408301525092915050565b6000813590506134f781614250565b92915050565b60006020828403121561350f57600080fd5b600061351d848285016131bc565b91505092915050565b6000806040838503121561353957600080fd5b6000613547858286016131bc565b9250506020613558858286016131bc565b9150509250929050565b60008060006060848603121561357757600080fd5b6000613585868287016131bc565b9350506020613596868287016131bc565b92505060406135a7868287016134e8565b9150509250925092565b600080600080608085870312156135c757600080fd5b60006135d5878288016131bc565b94505060206135e6878288016131bc565b93505060406135f7878288016134e8565b925050606085013567ffffffffffffffff81111561361457600080fd5b6136208782880161332b565b91505092959194509250565b6000806040838503121561363f57600080fd5b600061364d858286016131bc565b925050602061365e858286016132d7565b9150509250929050565b6000806040838503121561367b57600080fd5b6000613689858286016131bc565b925050602061369a858286016134e8565b9150509250929050565b6000602082840312156136b657600080fd5b60006136c4848285016132d7565b91505092915050565b600080604083850312156136e057600080fd5b60006136ee858286016132ec565b925050602083013567ffffffffffffffff81111561370b57600080fd5b6137178582860161337f565b9150509250929050565b60008060006060848603121561373657600080fd5b6000613744868287016132ec565b935050602084013567ffffffffffffffff81111561376157600080fd5b61376d8682870161337f565b925050604084013567ffffffffffffffff81111561378a57600080fd5b6137968682870161332b565b9150509250925092565b6000602082840312156137b257600080fd5b60006137c084828501613301565b91505092915050565b6000602082840312156137db57600080fd5b60006137e984828501613316565b91505092915050565b6000610100828403121561380557600080fd5b600061381384828501613487565b91505092915050565b600080610140838503121561383057600080fd5b600061383e85828601613487565b92505061010061385085828601613263565b9150509250929050565b60006020828403121561386c57600080fd5b600061387a848285016134e8565b91505092915050565b60008060008060006101a0868803121561389c57600080fd5b60006138aa888289016134e8565b95505060206138bb8882890161346b565b9450506101206138cd888289016131d1565b9350506101606138df888289016131bc565b9250506101806138f1888289016134e8565b9150509295509295909350565b6139078161416b565b82525050565b613916816140ed565b82525050565b613928604083836141a1565b5050565b613938604083836141a1565b5050565b613945816140ff565b82525050565b60006139568261407d565b6139608185614093565b93506139708185602086016141b0565b613979816141e3565b840191505092915050565b600061398f82614088565b61399981856140a4565b93506139a98185602086016141b0565b6139b2816141e3565b840191505092915050565b60006139ca6022836140a4565b91507f66726f6d206973206e6f7420746865206f776e6572206f662074686520746f6b60008301527f656e0000000000000000000000000000000000000000000000000000000000006020830152604082019050919050565b6000613a30602b836140a4565b91507f6e6f7420617070726f76656420666f7220616c6c206f722063616c6c6572206960008301527f73206e6f74206f6e7765720000000000000000000000000000000000000000006020830152604082019050919050565b6000613a966014836140a4565b91507f6d757374206265207265616c20616464726573730000000000000000000000006000830152602082019050919050565b6000613ad6601c836140a4565b91507f616464726573732063616e277420626520746f6b656e204f776e6572000000006000830152602082019050919050565b6000613b16601c836140a4565b91507f43616c6c6572206973206e6f7420636f6e7472616374206f776e6572000000006000830152602082019050919050565b6000613b56602f836140a4565b91507f63616e2774206d696e7420746f6b656e206265636175736520746f6b656e206160008301527f6c726561647920657869736974732100000000000000000000000000000000006020830152604082019050919050565b6000613bbc6010836140a4565b91507f696e636f72726563742063616c6c6572000000000000000000000000000000006000830152602082019050919050565b6000613bfc6017836140a4565b91507f736f6c7574696f6e206973206e6f7420636f72726563740000000000000000006000830152602082019050919050565b6000613c3c6017836140a4565b91507f736f6c7574696f6e2069732075736564206265666f72650000000000000000006000830152602082019050919050565b60408201613c8060008301836140d6565b613c8d6000850182613d48565b50613c9b60208301836140d6565b613ca86020850182613d48565b50505050565b60808201613cbf60008301836140b5565b613ccc600085018261392c565b50613cda60408301836140b5565b613ce7604085018261392c565b50505050565b6101008201613cff60008301836140c0565b613d0c6000850182613c6f565b50613d1a60408301836140cb565b613d276040850182613cae565b50613d3560c08301836140c0565b613d4260c0850182613c6f565b50505050565b613d5181614161565b82525050565b613d6081614161565b82525050565b6000602082019050613d7b600083018461390d565b92915050565b6000602082019050613d9660008301846138fe565b92915050565b6000608082019050613db160008301876138fe565b613dbe602083018661390d565b613dcb6040830185613d57565b8181036060830152613ddd818461394b565b905095945050505050565b6000602082019050613dfd600083018461393c565b92915050565b60006020820190508181036000830152613e1d8184613984565b905092915050565b60006020820190508181036000830152613e3e816139bd565b9050919050565b60006020820190508181036000830152613e5e81613a23565b9050919050565b60006020820190508181036000830152613e7e81613a89565b9050919050565b60006020820190508181036000830152613e9e81613ac9565b9050919050565b60006020820190508181036000830152613ebe81613b09565b9050919050565b60006020820190508181036000830152613ede81613b49565b9050919050565b60006020820190508181036000830152613efe81613baf565b9050919050565b60006020820190508181036000830152613f1e81613bef565b9050919050565b60006020820190508181036000830152613f3e81613c2f565b9050919050565b600061014082019050613f5b6000830185613ced565b613f6961010083018461391c565b9392505050565b6000602082019050613f856000830184613d57565b92915050565b6000604082019050613fa06000830185613d57565b613fad60208301846138fe565b9392505050565b6000604051905081810181811067ffffffffffffffff82111715613fd757600080fd5b8060405250919050565b600067ffffffffffffffff821115613ff857600080fd5b602082029050919050565b600067ffffffffffffffff82111561401a57600080fd5b602082029050919050565b600067ffffffffffffffff82111561403c57600080fd5b601f19601f8301169050602081019050919050565b600067ffffffffffffffff82111561406857600080fd5b601f19601f8301169050602081019050919050565b600081519050919050565b600081519050919050565b600082825260208201905092915050565b600082825260208201905092915050565b600082905092915050565b600082905092915050565b600082905092915050565b60006140e560208401846134e8565b905092915050565b60006140f882614141565b9050919050565b60008115159050919050565b6000819050919050565b60007fffffffff0000000000000000000000000000000000000000000000000000000082169050919050565b600073ffffffffffffffffffffffffffffffffffffffff82169050919050565b6000819050919050565b60006141768261417d565b9050919050565b60006141888261418f565b9050919050565b600061419a82614141565b9050919050565b82818337600083830152505050565b60005b838110156141ce5780820151818401526020810190506141b3565b838111156141dd576000848401525b50505050565b6000601f19601f8301169050919050565b6141fd816140ed565b811461420857600080fd5b50565b614214816140ff565b811461421f57600080fd5b50565b61422b8161410b565b811461423657600080fd5b50565b61424281614115565b811461424d57600080fd5b50565b61425981614161565b811461426457600080fd5b5056fea365627a7a72315820b92cba081aa2a863f74aaabaef1c50e22507600b8e328a0ac317bbe67b39c8826c6578706572696d656e74616cf564736f6c6343000510004068747470733a2f2f73332d75732d776573742d322e616d617a6f6e6177732e636f6d2f756461636974792d626c6f636b636861696e2f63617073746f6e652f",
  "source": "pragma solidity >=0.4.21 <0.6.0;\npragma experimental ABIEncoderV2;\nimport \"./SquareVerifier.sol\";\nimport \"./ERC721Mintable.sol\";\n\n// TODO define a contract call to the zokrates generated solidity contract <Verifier> or <renamedVerifier>\n\n// TODO define another contract named SolnSquareVerifier that inherits from your ERC721Mintable class\ncontract SolnSquareVerifier is CustomERC721Token, SquareVerifier {\n    // TODO define a solutions struct that can hold an index & an address\n    struct solutions {\n        uint256 index;\n        address addr;\n    }\n\n    // TODO define an array of the above struct\n    solutions[] private solutionArray;\n\n   \n\n    // TODO define a mapping to store unique solutions submitted\n    mapping(bytes32 => bool)  uniqueSolution;\n\n    // TODO Create an event to emit when a solution is added\n    event solutionAdded(uint256 index, address owner);\n\n    // TODO Create a function to add the solutions to the array and emit the event\n    function addSolution() external {\n          uint256 len=solutionArray.length;\n          solutionArray.push(solutions({index:len,addr:msg.sender}));\n          emit  solutionAdded(len,msg.sender);\n    }\n    // TODO Create a function to mint new NFT only after the solution has been verified\n    //  - make sure the solution is unique (has not been used before)\n    //  - make sure you handle metadata as well as tokenSuplly\n    function mintNewNFT(\n        uint256 index,\n        Proof calldata proof,\n        uint256[2] calldata input,\n        address to,\n        uint256 tokenId\n    ) external {\n        bytes32 key=keccak256(abi.encode(proof, input));\n        require(solutionArray[index].addr == msg.sender,\"incorrect caller\");\n        require(!uniqueSolution[key],\"solution is used before\");\n        require(verifyTx(proof,input),\"solution is not correct\");\n        uniqueSolution[key]=true;\n        mint(to,tokenId);\n    }\n}\n",
  "sourcePath": "/home/amr/BlockChain/Blockchain-Capstone/eth-contracts/contracts/SolnSquareVerifier.sol",
  "compiler": {
    "name": "solc",
    "version": "0.5.16+commit.9c3226ce.Emscripten.clang"
  },
  "schemaVersion": "3.4.3",
  "updatedAt": "2021-09-09T12:53:27.255Z",
  "networkType": "ethereum",
  "devdoc": {
    "methods": {
      "isApprovedForAll(address,address)": {
        "details": "Tells whether an operator is approved by a given owner",
        "params": {
          "operator": "operator address which you want to query the approval of",
          "owner": "owner address which you want to query the approval of"
        },
        "return": "bool whether the given operator is approved by the given owner"
      },
      "setApprovalForAll(address,bool)": {
        "details": "Sets or unsets the approval of a given operator An operator is allowed to transfer all tokens of the sender on their behalf",
        "params": {
          "approved": "representing the status of the approval to be set",
          "to": "operator address to set the approval"
        }
      },
      "supportsInterface(bytes4)": {
        "details": "implement supportsInterface(bytes4) using a lookup table"
      },
      "tokenByIndex(uint256)": {
        "details": "Gets the token ID at a given index of all the tokens in this contract Reverts if the index is greater or equal to the total number of tokens",
        "params": {
          "index": "uint256 representing the index to be accessed of the tokens list"
        },
        "return": "uint256 token ID at the given index of the tokens list"
      },
      "tokenOfOwnerByIndex(address,uint256)": {
        "details": "Gets the token ID at a given index of the tokens list of the requested owner",
        "params": {
          "index": "uint256 representing the index to be accessed of the requested tokens list",
          "owner": "address owning the tokens list to be accessed"
        },
        "return": "uint256 token ID at the given index of the tokens list owned by the requested address"
      },
      "totalSupply()": {
        "details": "Gets the total amount of tokens stored by the contract",
        "return": "uint256 representing the total amount of tokens"
      }
    }
  },
  "userdoc": {
    "methods": {}
  }
}